:020000022000DC
:1060000000F0002035620200656202006762020053
:10601000696202006B6202006D6202000000000013
:106020000000000000000000000000006F6202009D
:1060300071620200000000007362020075620200DB
:10604000796202007B6202007D6202007F620200D0
:106050008162020083620200F1730200497702004C
:10606000896202008B620200697503008F62020080
:106070009162020093620200956202009762020040
:1060800099620200E1AA03005DC30200897C02005C
:1060900009AB0300A36202002D0E0400A7620200F8
:1060A000A9620200AB620200AD620200AF620200B0
:1060B00039B20300B3620200776202007762020025
:1060C000B5620200B7620200B9620200BB62020060
:0C60D000BD620200BF620200C16202005B
:1060DC00354936480A1A02D0072291438D46344975
:1060EC0034480A1A06D00722914381F30988022208
:1060FC0082F3148830483149314A00F043F8314872
:10610C003149324A00F03EF831483249324A00F007
:10611C0039F832483249334A00F034F832483349BE
:10612C00334A00F02FF833483349344A00F02AF848
:10613C0033483449344A00F025F8344834490022B5
:10614C0000F02BF833483449002200F026F833488D
:10615C003349091A082903DB00220260043001606C
:10616C001F482049884205D00268043003B4904788
:10617C0003BCF7E700208646EC4600200021294AA4
:10618C009047FEE7884207D0521A05D003780130B9
:10619C000B700131013AF9D17047884202D002707C
:1061AC000130FAE77047000000F0002000E8002002
:1061BC0000F0002000F000200C3B0400C83200204E
:1061CC003C340020C4620200C4620200A81E040019
:1061DC000C3B0400C8320020C8320020E41F04002D
:1061EC00E41F0400E41F0400E41F0400E41F040087
:1061FC00E41F0400E41F0400E41F04000C3B040033
:10620C00803C04003C3400203C3400203C34002012
:10621C006883002068830020688300206883002046
:10622C0068870020A96E020008484FF007018843D8
:10623C008546074880470748016841F470010160B2
:10624C00BFF34F8FBFF36F8FFFF742BF00F00020FB
:10625C0031AF030088ED00E0FEE7FEE7FEE7FEE766
:10626C00FEE7FEE7FEE7FEE7FEE7FEE7FEE7FEE7FA
:10627C00FEE7FEE7FEE7FEE7FEE7FEE7FEE7FEE7EA
:10628C00FEE7FEE7FEE7FEE7FEE7FEE7FEE7FEE7DA
:10629C00FEE7FEE7FEE7FEE7FEE7FEE7FEE7FEE7CA
:1062AC00FEE7FEE7FEE7FEE7FEE7FEE7FEE7FEE7BA
:0862BC00FEE7FEE7FEE700BF6C
:1062C40033DF704741DF704776DF70477ADF70470E
:1062D4007CDF7047002070477047704770470000AC
:1062E40000B583B09DF80430012262F3030362F326
:1062F400071302A800F8043D09220549FFF7E8FF47
:1063040010B903B05DF804FB14F02CFFF9E700BFEB
:106314005021040008B514F025FF08BD00B583B072
:10632400114B1B6813F4804F03D0104B1B68032BD5
:106334000DDC4FF0A0430222C3F808274FF440328B
:10634400C3F81027FFF7BCFF03B05DF804FB084B4C
:10635400D3F80435074A00924FF4307206490420FA
:1063640006F0FCFFE5E700BF443300204033002083
:1063740000B00040342304002A23040000B583B095
:10638400037823B1012B0BD003B05DF804FB3B2150
:106394004088FFF799FF0028F6D014F0E3FEF3E7F6
:1063A4000A4B1B6813F4804FEED0094B1B68032B78
:1063B400EADD084BD3F80435074A009240F2E712AD
:1063C4000649042006F0CAFFDEE700BF443300207C
:1063D4004033002000B00040282204002A23040097
:1063E40000B583B0032856D8DFE800F002192D4128
:1063F400334B1B6813F4804F03D0324B1B68032BC1
:1064040002DC03B05DF804FB2F4BD3F804352F4AAC
:106414000092BE222E49042006F0A0FFF1E7284B8B
:106424001B6813F4804FECD0264B1B68032BE8DD6C
:10643400254BD3F80435274A0092C7222449042067
:1064440006F08CFFDDE71E4B1B6813F4804FD8D099
:106454001C4B1B68032BD4DD1B4BD3F804351E4A9D
:106464000092CB221A49042006F078FFC9E7144BA6
:106474001B6813F4804FC4D0124B1B68032BC0DD80
:10648400114BD3F80435154A0092D1221049042047
:1064940006F064FFB5E70A4B1B6813F4804FB0D0D5
:1064A400084B1B68032BACDD074BD3F804350C4AAF
:1064B4000092D8220649042006F050FFA1E700BF4D
:1064C400443300204033002000B00040302004005A
:1064D4002A2304006020040084200400C020040057
:1064E400F020040008B504F09BFE08BD08B50022A6
:1064F400024B1968024814F04FFB08BDD432002047
:10650400A836002000B583B00DF10601084B1888A9
:106514000CF032FF38B9BDF806204FF6FF739A42EB
:1065240002D0012000E0002003B05DF804FB00BFAE
:106534008436002000B583B00F4B1B6813F4804FE2
:1065440003D00E4B1B68032B09DC0322C82118203F
:1065540000F01CFF0AF058F803B05DF804FB084B88
:10656400D3F80435074A009240F2971206490420F2
:1065740006F0F4FEE9E700BF443300204033002076
:1065840000B000400C2204002A23040010B582B09D
:106594000446FFF7B7FF18B1012C03D9032C07D029
:1065A40002B010BD124B196812481AF055FAF7E7F9
:1065B40009F0CEFFA0B9104B1B6813F4804FEFD045
:1065C4000E4B1B68032BEBDD0D4BD3F804350D4A42
:1065D40000924FF4E9720C49042006F0BFFEDFE795
:1065E4000BF09EFB09F0ACFFFFF7A4FFD8E700BF58
:1065F400A436002084360020443300204033002099
:1066040000B00040182104002A23040008B501202A
:10661400FFF7BCFF08BD08B503781C2B00D008BDEC
:10662400FFF788FFFBE7000008B5022000F086FEB4
:1066340080F00101C9B2022000F08CFE022000F0BB
:106644007DFE68B9094B40F21F521A60084B0122C3
:106654001A700022054B1968064814F09DFA08BD0B
:10666400024B46F248121A60F3E700BF5C34002084
:10667400EC3600203C3400202DE9F04188B004AF12
:1066840009F0B0FFA0B92A4B1B78BBB101F07AFC2A
:10669400284B1B6813F4804F46D0274B1B68032BF1
:1066A40042DDE8468AB00DF1100C6646002326E070
:1066B400224A4FF4247114F063FDE4E7204A3B1DA1
:1066C40007CA83E80700184600F0E2FD0028DDD081
:1066D4001A4A40F29A2114F053FDD7E7C25C4FEAFC
:1066E400121E5900174C256815F80EE006F813E041
:1066F40002F00F0201312468A25C725401330F2BA3
:10670400ECD900238CF820300F4BD3F80435CDF8A6
:1067140008C00E4A01920E4A009240F29E220D4990
:10672400042006F01BFEC5461037BD46BDE8F081C7
:10673400943600204433002040330020B422040067
:10674400E41F04004833002000B000404C23040040
:106754005C2304002A23040000B58BB00023ADF8A9
:1067640008301423ADF804305023ADF806304FF44C
:10677400C873ADF80A3001A8FFF7A8FDC0B900231B
:106784000693079301AB039340F6CD4304934FF470
:106794008033059303238DF81830084B0893084B76
:1067A400099303A813F088FE28B90BB05DF804FB25
:1067B40014F0D8FCE3E714F0D5FCF6E7816302009B
:1067C4001963020000B58FB0184BDB680EA941F8BD
:1067D400143D04220AA800F03FFED0B92022002173
:1067E40068461BF0FAFA01238DF8003007238DF870
:1067F40003308DF808300AAB03930D4B04930D4B13
:1068040008930D49684609F0B1FE40B90FB05DF830
:1068140004FB0A4A40F23B2114F0B2FCDEE7074ACB
:1068240040F2432114F0ACFCF0E700BFE41F040085
:106834001B660200A168020094360020B422040002
:1068440000B583B014F062F9B8B91AF045FAD0B9BA
:1068540002A9002341F8043D012013F075FCA8B9F6
:1068640001A813F0C5FCA0B9FFF73AFDFFF774FFC8
:10687400FFF7A8FF03B05DF804FB074A40F2732159
:1068840014F07EFCE1E714F06DFCE1E714F06AFC1F
:10689400E6E714F067FCE7E7B422040000B583B030
:1068A400254B1B6813F4804F03D0244B1B68032B28
:1068B4001EDC2348234B4360234B836000211AF0E2
:1068C4001FF908BB1E4B18880CF044FE10BB1F4870
:1068D4001F4B43601F4B836001211AF097F8F8B9EE
:1068E4001A4B18880CF036FE00BB03B05DF804FBAD
:1068F400194BD3F80435194A009240F22A22184958
:10690400042006F02BFDD4E7164A40F22D2114F0A2
:1069140037FCD7E7134A40F22E2114F031FCD6E7B6
:10692400104A40F2322114F02BFCD9E70D4A40F210
:10693400332114F025FCD8E74433002040330020F1
:1069440098360020D9620200516B02008436002080
:10695400DD620200DF62020000B00040EC210400AE
:106964002A230400B422040000B583B00023019359
:106974001AF012FC02A8044B40F8043D1AF050FB34
:1069840003B05DF804FB00BFE563020000B585B009
:106994002E4B1B783BBB2E4B1B6813F4804F03D04C
:1069A4002C4B1B68032B2ADCFFF79AFCFFF7D4FE61
:1069B400FFF7DAFF03A80EF0CFFF254B1B6813F493
:1069C400804F03D0234B1B68032B24DCBDF80C2021
:1069D400214B1A600021182000F0CDFC0422C821AC
:1069E400182000F0D3FC1A4B1B6813F4804F03D01B
:1069F400184B1B68032B1DDC05B05DF804FB174B1B
:106A0400D3F80435164A00924FF4FB72154904205A
:106A140006F0A4FCC8E7114BD3F80435BDF80C20EC
:106A24000192114A00924FF4FF720E49042006F0BD
:106A340095FCCBE7094BD3F804350C4A009240F29D
:106A440006220849042006F089FCD5E79436002084
:106A54004433002040330020A436002000B000401E
:106A6400542204002A230400702204008822040013
:106A740030B585B0194B1A69039203258DF80C5073
:106A84006C46143393E8070003C4227002238DF884
:106A940002308DF80350124903A800F029FF80B991
:106AA4006946002000F078FF70B901210D4800F01C
:106AB400CBFF60B901210C4800F0C6FF50B905B006
:106AC40030BD14F04FFBEBE714F04CFBEDE714F092
:106AD40049FBEFE714F046FBF1E700BFE41F0400B5
:106AE400996C0200803600208236002000B583B005
:106AF400114B1B6813F4804F03D0104B1B68032BFE
:106B04000DDC4FF0A0430222C3F808274FF40032F3
:106B1400C3F81027FFF7D4FB03B05DF804FB084B60
:106B2400D3F80435074A009240F2CA2206490420E9
:106B340006F014FCE5E700BF443300204033002096
:106B440000B00040742304002A23040010B50C464E
:106B54001E4B1B6803B129B9002C34D0201C18BF6C
:106B6400012010BD1A4814F035F81A4814F032F810
:106B7400164B1A68184B1B689A421BD3002102203B
:106B840000F0E8FB022000F0D9FBB8B1134B46F249
:106B940048121A600022114B19680E4813F0FCFFCA
:106BA40000220F4B19680A4813F0F6FF074B002226
:106BB4001A60D3E70B4814F00DF8DFE7074B40F2F7
:106BC4001F521A60E6E7FFF791FFC7E7EC82002047
:106BD400603400203C340020A43600205C340020C3
:106BE400CC320020A836002000B587B04FF0A04377
:106BF4000222C3F80827C3F810271D4B1B6813F49F
:106C0400804F03D01B4B1B68032B21DC03AB1A4AB8
:106C140007CA83E8070001228DF810200D22039291
:106C240003228DF814201549184601F041F8D8B90B
:106C340001F0B2F8124BD3F80031002BFAD0104B0C
:106C44000022C3F80021FFF73BFB07B05DF804FB0B
:106C54000C4BD3F804350C4A009240F2DB220B496A
:106C6400042006F07BFBD1E714F07CFAE0E700BFD8
:106C7400443300204033002004200400E162020079
:106C84000030014000B00040182004002A23040012
:106C940000000000037803B1704730B52DED028B7E
:106CA40083B004460121406800F0CEFE90B96B4BDE
:106CB4001B78FA2B0AD862681188694A22F81310E3
:106CC4000133DBB2654A1370FB2B3ED003B0BDEC3D
:106CD400028B30BD14F046FAE9E7614931F813102C
:106CE4000A440133FA2BF8DD5E4880FB0230D217E8
:106CF400C2EB20101AF0ADFC52A3D3E900231AF022
:106D040041FE0022584B1AF03DFE50A3D3E9002364
:106D14001AF038FE4FA3D3E900231AF0EEFC1AF060
:106D2400AFFC524B186052490B78524A02EB830273
:106D340010604A4A002010700133DBB20B70FB2B49
:106D4400C4D10123DFED4C7A0AE001230022C9E714
:106D5400484A02EB830292ED007A77EE877A013398
:106D6400FA2BF5DD9FED457A87EE878ADFED447ACD
:106D740068EE277AFCEEE77A17EE900A4149002381
:106D84004B71A3F13333A3FB0042D208144602EB48
:106D940082025500421BD2B242F030020A71A3FBB8
:106DA4000402D208154602EB82025000221AD2B223
:106DB40042F03002CA70A3FB0502D208104602EB6F
:106DC400820254002A1BD2B242F030028A702E2270
:106DD4004A70A3FB0023DB081C4603EB83035A0021
:106DE400831ADBB243F030030B70274B1C60274B34
:106DF4001B785BB1254B00221A70254B1B6813F4DA
:106E0400804F03D0234B1B68032B0DDC184B00224F
:106E14001A70F0EE027AB4EEE78AF1EE10FA7FF51A
:106E240055AFFFF7E1FE51E71B4BD3F80435019151
:106E34001A4A009240F22D121949042006F08EFAE3
:106E4400E4E700BF6666666666660A404A0C022B83
:106E54008716F13F9A9999999999B93FD0320020B0
:106E640084340020D34D62100000103F8034002091
:106E7400D8320020F43600200000000000007A43DD
:106E840000007A4478360020F0360020106E00208E
:106E9400443300204033002000B00040A42204000A
:106EA4002A23040030B585B04FF080430122C3F893
:106EB4007825824A04214FF4804006F033FA804B4F
:106EC4001B6813F4804F0ED07E4B1B68032B0ADD26
:106ED4007D4BD3F804357D4A009240F2EE227C4982
:106EE400042006F03BFAFFF7ABFCFFF73DFDEFF3A0
:106EF400108572B6774B9B689BB9764A01239360E1
:106F0400754BD3F88010754801401160C3F88000B8
:106F1400D3F8841051604FF0FF32C3F8842000246A
:106F240000E0012405B962B6FFF7A6FB694B9B6834
:106F34006BB164B9EFF3108172B6664B1868664A98
:106F440010605868506000229A6001B962B603A8C4
:106F54000EF002FDBDF80C20614B1A60584B1B6803
:106F640013F4804F0FD0574B1B68032B0BDD564B8C
:106F7400D3F8043501925B4A009240F2F522544959
:106F8400042006F0EBF900F01DFE002834D1FFF7D1
:106F94006FFD4FF0A0430021C3F810170322C3F87C
:106FA40008270422C3F80C254F4A504813F0DEFD8D
:106FB40028BB4F4A00214F4813F0D8FD10BB4FF4B3
:106FC40000414D4B196000224C4813F0E5FD4C4A3A
:106FD40001214C4813F0CAFDB8B900224A4B196884
:106FE4004A4813F0D9FD4A4A01214A4813F0BEFD2C
:106FF400C0B114F0B7F815E014F0B4F8C7E714F012
:10700400B1F8D6E714F0AEF8D9E714F0ABF8E4E73A
:1070140000F082FD0EE0404813F0DCFD3F4B0022FF
:107024001A7044BBFFF74EF900F0E2FD3C4B1B78AD
:10703400012BEDD04FF0A043D3F81045C4F3001456
:10704400002CEED1354B1B78012BEAD11C4B1B686D
:1070540013F4804FDFD01B4B1B68032BDBDD1A4B73
:10706400D3F804352F4A009240F211321849042013
:1070740006F074F9CFE7294B1B78002BD2D1104BC3
:107084001B6813F4804F03D00E4B1B68032B09DCE1
:107094000022254B1968204813F07EFD1F4B012266
:1070A4001A70BFE7084BD3F80435204A00924FF416
:1070B40046720749042006F051F9E9E7FDD20200BF
:1070C400443300204033002000B000405C21040021
:1070D4002A2304001081002000E100E0FC06FFBD2B
:1070E400A4360020942104002163020048230400F4
:1070F4002D660200102004005C3400203C34002083
:1071040011660200B0220400D4320020A836002008
:10711400F164020014200400CC360020C83600209C
:10712400EC360020A8210400C8320020C821040045
:107134002C4B1B78002B54D000B585B0012804D00B
:10714400032847D005B05DF804FB04A9002341F8E7
:10715400083D012012F0F8FF48BB02A813F048F8DC
:1071640040BB04A9012341F8043D0DF106000FF0D2
:107174002BF910BBBDF806000EF0C4FD0DF105019E
:107184000EF012FFE0B90AF0A5FC9DF805100020EE
:107194000AF0DEFDB8B903F0A9FFC0B9114B002213
:1071A4001A70114B1B68002BCCD09847CAE713F018
:1071B400D9FFD2E713F0D6FFD3E713F0D3FFD9E713
:1071C40013F0D0FFDFE7784600F0AAFAE3E713F004
:1071D400C9FFE3E719F080FD0028B3D013F0C2FF24
:1071E400B0E77047DD3A0020E03A002008B5084BCC
:1071F40001221A7003F0CCFF18B919F0B3FD18B9C5
:1072040008BD13F0AFFFF8E713F0ACFFF8E700BFD9
:10721400DD3A002008B503230022034949680348E6
:1072240014F0A0FF08BD00BFE03A0020243D002078
:1072340008B50378072B0DD00A2B16D0022B00D0EB
:1072440008BD104B1B7813B9FFF7E4FFF8E7FFF70D
:10725400CDFFF5E710220C4B99680C4815F00CF89B
:107264000028EDD013F07EFFEAE78168C06809F0DA
:107274002CF918B9034B01221A70E1E713F072FFDD
:10728400F8E700BFDC3A0020E03A0020243D00206B
:1072940010B586B00446214A03AB07CA03C323F8DA
:1072A400022B120C1A701E4B94E8070083E80700A7
:1072B400002A31D01B491C4814F038FF034610B192
:1072C400184606B010BD194B009303AB154A164976
:1072D400174814F0E7FE03460028F1D1154816F0CC
:1072E400ADFA0146124814F009FF03460028E7D11D
:1072F400114814F001F903460028E1D10E4814F0B6
:1073040031F901460A4814F0F9FE03460028D7D1A2
:10731400FFF780FF0346D3E70723D1E78C2304005C
:10732400E03A0020EC3A0020583E0020357202007A
:10733400243D00200C3B0020D43C00204FF0A0430F
:10734400D3F80425012303FA00F002420CBF1846C7
:107354000020704739B9012303FA00F04FF0A0432D
:10736400C3F808057047012303FA00F04FF0A04367
:10737400C3F80C05704721B94FF0A043C3F80805C2
:1073840070474FF0A043C3F80C05704712B1134681
:10739400132900D8704770B5114A10605B00013B97
:1073A400104A136000264D0CCC034FF47A7200236C
:1073B40014F5FA7045F100011AF09AFB32460146C1
:1073C400094813F0E9FB48B94FF0A042D2F804355C
:1073D4000349096823EA0103C2F8043570BD00BFFC
:1073E4009C3E0020983E0020A03E002010B50024C2
:1073F400144BC3F87C410EE043F23333994208D96D
:10740400114BD3F80425114B1A60114B1B6820460D
:1074140098470134E4B2032C12D84FF0A043D3F8B8
:1074240010250C4B195D01238B409343F1D0074B7E
:107434001B68054AD2F80425991ADDD5D11ADBE771
:1074440010BD00BF0060004000B00040C43E0020FA
:10745400C03E002098230400082A10D838B51446EA
:1074640005461AF091FCC4F10802002128191AF00B
:10747400B4FC044B03CBA860E960002038BD0920AC
:10748400704700BF6000001072DF704773DF704701
:1074940074DF70472DE9F047A2B00746884691464D
:1074A400314C0026C4F80660E68130490B78C3EB02
:1074B40043102F4D054425602E4A0244A2601F222A
:1074C400A280A281013303F001030B704FF03C0A48
:1074D4005246314613A81AF080FC06238DF84F302B
:1074E400ADF8487001238DF84A30ADF85C3012AA2B
:1074F4001892ADF83C70ADF84090CDF844800DEB97
:107504000A021D928DF878305246314668461AF0C8
:1075140064FC02238DF80030221D294613A812F0C2
:1075240009FD90B9104B03F10C029968684612F0FA
:1075340001FD68B9104A0C491048FFF7A5FF082857
:1075440009D070B922B0BDE8F08713F00BFEE9E76B
:1075540013F008FEEEE7002203490848FFF794FF02
:10756400EFE713F0FFFDEDE70C3F0020C83E0020DD
:10757400CC3E00201C3F0020DC320020D932002009
:10758400034B00EB800042009A819960704700BF72
:10759400DC32002008B50121054B1878FFF776FF8F
:1075A40010B904F013FD08BD13F0DCFDF9E700BFCA
:1075B400D932002008B5044B1878FFF769FF00B9E9
:1075C40008BD13F0CFFDFBE7D93200200620704739
:1075D40000B587B041F2010398425AD020D944F251
:1075E400010398426BD044F2020398421AD1414BF2
:1075F4001B6813F4804F3FD03F4B1B68002B3BDDCF
:107604003E4BD3F8043510880390526802920191DE
:107614003B4A00925F223B49012005F09FFE2BE08C
:10762400012814D0334B1B6813F4804F24D0324B01
:107634001B68002B20DD314BD3F804350191324A0D
:1076440000926D222F49012005F088FE14E0294B99
:107654001B6813F4804F0FD0274B1B68002B0BDDE6
:10766400264BD3F8043502920191284A0092542201
:107674002449012005F072FEBFF34F8F2449CA68E4
:1076840002F4E062234B1343CB60BFF34F8F00BF80
:10769400FDE7184B1B6813F4804FEDD0164B1B68A5
:1076A400002BE9DD154BD3F80435029201911A4AF7
:1076B400009257221349012005F050FEDCE70D4BE0
:1076C4001B6813F4804FD7D00B4B1B68002BD3DD02
:1076D4000A4BD3F804351068049050680390029163
:1076E400926801920D4A009269220649012005F030
:1076F40035FEC1E7443300204033002000B0004091
:1077040044240400F1230400882404000424040015
:1077140000ED00E00400FA052024040064240400C1
:1077240000B583B00023ADF80030054B01936A46E1
:10773400014644F20200FFF74BFF03B05DF804FB7F
:107744008424040010B588B0624B1B68002B2AD037
:10775400604B00221A601B680093009B5E4B93F8F9
:107764002E2012B193F82F30EBB100238DF8143092
:10777400594B596806911989ADF81C10D96800292C
:107784007FD0554B188B5883596018810021D960DC
:1077940012B9524B01221A604F4C236805A898472E
:1077A400002384F82F304C4B93F82E3033B34C4BDA
:1077B4001B681BB34A4B00221A601B680193019B90
:1077C400454A538B92F82D108AB293425CD99B1A86
:1077D4009BB24148438342680089C31A02EB4303C6
:1077E4003E4AC2F82C36C2F830163A4B00221A60D0
:1077F4001B680293029B3B4B01221A603A4B1B68A5
:107804006BB1394B00221A601B680393039B324B04
:107814001A7408A8022200F80C2D1B689847334BF1
:107824001B68002B4BD12C4B5C69002C4FD0B4FA55
:1078340084F34FF00042DA4024EA020446339B000A
:1078440003F1804202F5E04211680029EDD00021E5
:10785400116012680492049A01228DF81420A3F591
:107864008C73C3F3C7028DF8182013F0040F0CBFF8
:1078740001230B468DF81930174B1B6805A8984750
:10788400D3E700221A7487E7934208D09342ACD11D
:10789400114B012283F82F2000225A83A5E70E48BA
:1078A400C0680028F2D00C4B012283F82F2000225C
:1078B4005A830A4BC3F82C06C3F8301695E70B4AD3
:1078C4000023136012680592059A034A137408B0E2
:1078D40010BD00BF047100405C3F002000700040F8
:1078E40000710040047000401071004014710040A9
:1078F400244B93F82C30002B41D110B483B0214B8E
:10790400196002782049C1F8F0254278C1F8F425BD
:10791400C27883F82E20012283F82C2000221A74C6
:1079240083F82D205A6183F82F206FF00044C1F8AA
:107934000843164C226024680194019C144C226074
:1079440022680092009A82785201D2B2114880F8DB
:1079540007238022C0F8802102600222C1F8042398
:1079640093F82E3013B10122C1F80423064B0122EF
:10797400C3F80025002003B05DF8044B70470820CD
:10798400704700BF5C3F002000700040047100405D
:107994000071004000E100E0294B1B7C002B4CD11E
:1079A40070B400F10C03264A02EB43031B7923B99C
:1079B40092F82D30013382F82D30CA7900F10C048D
:1079C4001F4B03EB44031A710A7A5A710B7803F0C4
:1079D40003034A78120102F0300213438A78120238
:1079E40002F4E0621343CA78120302F48052134390
:1079F4000A79120402F4E02213434A79120502F4CC
:107A0400801213438A79120602F0807213430D4ADE
:107A140002EB0014C4F81835CC790E7A00F1510346
:107A24001B01D5186E60D450CB790C7A513000010B
:107A34006C601350002070BC70471120704700BF69
:107A44005C3F002000700040304B1222C3F8082332
:107A54002F4B1B7CDBB2022B23D082B02C4B1B7C24
:107A6400DBB2012B22D0294B0222C3F80423284B7A
:107A740001221A74586019810022DA6093F82E30BA
:107A8400002B37D1214BC3F82C06C3F83016214AFA
:107A94000020106012680192019A01221A6002B05B
:107AA40070471A4BC3F8042311207047184BDB6846
:107AB4002BB1164B0222C3F804231120EFE7144B19
:107AC400D860198393F82E3073B9124B1B68002BBE
:107AD400FBD0104B00221A601B680093009B0B4BD9
:107AE400C3F82C06C3F83016084B0222C3F804234B
:107AF4000020D4E7064B598393F82D20034BC3F899
:107B04002C06C3F830260020C9E700BF00700040EF
:107B14005C3F0020007100400A4B1B7CDBB2012B50
:107B24000DD1084B93F82E3023B9074B01221A606C
:107B340000207047054B01221A600020704708207E
:107B4400704700BF5C3F002004700040007000409C
:107B540033DF704708B5174B5B6843B11B68164A9F
:107B64001078984728B3134812F085FAF3E7124BBC
:107B74001B78023BDBB2012B0CD8BFF34F8F0F49AC
:107B8400CA6802F4E0620E4B1343CB60BFF34F8F1D
:107B940000BFFDE719F02CF940B94FF080430122F2
:107BA400C3F80025BFF34F8F20BFFDE7FFF7D0FFD9
:107BB400F3E708BD8C3F0020943F002000ED00E077
:107BC4000400FA0510B50024054B1C70054B1C601D
:107BD400BFF35F8F0449054812F043FA204610BDF5
:107BE400953F0020983F0020A42404008C3F0020EF
:107BF40020BF40BF20BF704710B5044601210F4885
:107C040012F0FEFFBFF35F8F80B9042C07D00C4B3A
:107C14001B7863B90B4B1C70094B01221A70FFF7D8
:107C240099FFBFF35F8F054B00221A6010BDBFF3AD
:107C34005F8F024B00221A60F8E700BF983F0020D4
:107C4400953F0020943F002000F1804303F59833D2
:107C54001A688AB1094AD2F8042311420CD000B53B
:107C640083B000221A601B680193019B044B1B68BC
:107C7400984703B05DF804FB704700BF0030014033
:107C84009C3F002008B501214FF48070FFF7DCFF12
:107C940002214FF48270FFF7D7FF04214FF4847060
:107CA400FFF7D2FF08214FF48670FFF7CDFF08BD20
:107CB400354B1B78002B65D110B4344B1960344B11
:107CC40001225A600022C3F80025026802F00F0264
:107CD400C3F80825036803F00702072A3DD0027998
:107CE40002F003022A4BC3F82025427902F0010274
:107CF400C3F838250021C3F800120F22C3F8082363
:107D0400027AD3F80045C3F80015D3F8041521F01E
:107D140007010A43C3F80425C3F800450379012B7E
:107D240021D053B3022B23D0194AD2F8003243F0A6
:107D34000103C2F80032437A5B01DBB2154A82F8D0
:107D440013334FF40023C2F8803113600E4B012229
:107D54001A7000205DF8044B7047C3F300430C4ACB
:107D6400C2F80C35BBE70A4B0422C3F80423DBE753
:107D7400074B0222C3F80423D6E7054B0822C3F8B5
:107D84000423D1E708207047A03F00209C3F002037
:107D94000030014000E100E0084B0121C3F8001568
:107DA4000022C3F80021C3F80421C3F80821C3F852
:107DB4000C211960024B02221A70704700300140F6
:107DC400A03F0020132801D90020704738B504468D
:107DD400054D014605F1080019F019FC2146281D3E
:107DE40019F015FC012038BDA43F002038B5054624
:107DF400002407E0054800EB84002946043019F00C
:107E040012FC01341C2CF5D938BD00BFA43F00205E
:107E140008B50146014819F006FC08BDAC3F002036
:107E240030B583B00546019100230360019B8BB1FB
:107E3400002400E00134132C0CD8214601A819F0C9
:107E4400FFFB0028F6D02B685A1C2A6005EB43037D
:107E54009C80EFE7284603B030BD000030B599B0F0
:107E6400124A9368DB4318A840F8043D516812F0A5
:107E7400DCFE17996846FFF7D3FF0CAD6C460FCCB8
:107E84000FC50FCC0FC594E8070085E80700002450
:107E940007E018AB03EB440333F82C0CFFF7A6FF01
:107EA40001340C9BA342F4D819B030BDA43F002088
:107EB40038B585880388112B17D004461A2B18D09F
:107EC400102B00D038BDFFF7C9FF2846FFF77AFF13
:107ED40038B1E37B012BF5D02946164819F097FBFE
:107EE400F0E7042013F03EF9ECE72846FFF790FF93
:107EF400E8E7047A2409012C0FD929460E4819F021
:107F040086FB022C04D929460C4819F080FBD9E7DA
:107F140029460A4819F087FBD4E7094C294604F19D
:107F2400100019F080FB294604F1140019F07BFBC2
:107F3400C8E700BFB03F0020B43F0020B83F002096
:107F4400A43F002010B40346044C006859689A68A2
:107F5400DB680FC45DF8044B704700BF1C40002071
:107F6400064B074A92E8030083E8030008334432CF
:107F740092E8030083E80300704700BF1C40002020
:107F840060000010004870471C400020002308E0F7
:107F9400074901EBC30000224280426001F833200C
:107FA40001331F2BF4D9034B00221A60704700BF22
:107FB4002C4000202C41002030B405460F4B1B6898
:107FC40000240AE01F230E4A12F83300A0B102EB8A
:107FD400C3025288AA4207D001341F2C0BD85A1E60
:107FE400002BEFD01346EEE7054A02EBC3025268BA
:107FF4008A42F1D100E0002030BC70472C410020BF
:108004002C40002030B40A4A13680A4C04EBC30520
:1080140068806960012104F833100B441360202B3D
:1080240001D030BC7047134600221A60F9E700BF44
:108034002C4100202C400020C0F30C038B4202D3BF
:10804400C91A08447047C91A0844A0F5005070477B
:10805400C37D002B42D083780A7802F0800203F0BB
:108064007F0313430B7002780B7803F07F0343EA1A
:10807400C2130B700378002B41D030B44378082B23
:1080840014BF002201224B7803F07F0343EAC2139A
:108094004B70858803F08003C5F3861423434B702B
:1080A4008A7802F0030242EA8502D2B28A708579A4
:1080B40002F0FC02C5F3C10422438A70CB7803F0BA
:1080C4001F0343EA4513DBB2CB70C27903F0E0032C
:1080D40002F01F021343CB7030BC704783780A78D8
:1080E40002F0BF029B0103F0400313430B70C278FC
:1080F40003F0C00302F03F0213430B70B3E7704771
:108104000023032B22DC10B402E00133032B19DC1F
:108114000F4C6C2202FB034292F84420012AF4D152
:108124006C2202FB0342948AC2899442EDD1084C2A
:108134006C2202FB034292888A42E6D16C2202FB43
:10814400034000E000205DF8044B704700207047B6
:10815400A4410020002300E00133032B13DC0B496E
:108164006C2202FB031292F84420022AF4D16C22FE
:1081740002FB0312918A828A9142EDD103486C2258
:1081840002FB030070470020704700BFA441002099
:1081940008B10820704704207047000038B5054630
:1081A4000C46CB695B78C370CB691B7883F0010301
:1081B4008370CB694362087B022814D0FFF7E8FF81
:1081C4006870E27A32B9A18AC0F10F03994201DCE6
:1081D400082831D0A18A0346C0F10F00814207DC90
:1081E40042B3012205E0154B987DFFF7D1FFE7E785
:1081F40001222A7062B1A28A13440B33104A82FB13
:108204000312DB17C3EB6203013BEB710023AB7179
:108214000023EB7505F10C0294E8030082E80300E7
:10822400A2692A622289AA82A27AAA75226AAA6209
:10823400184638BD0022DCE70720FAE78C4100200D
:10824400ABAAAA2A30B403460C46097881700021EF
:108254004162A1680B2903D8217BF1B1012100E01F
:10826400012119700020587029B1A1680731C9088B
:108274000139D97198710121D97503F10C0504F103
:10828400100103C985E80300E1899982A169196293
:10829400217F99759A6230BC70470021E1E70000A4
:1082A4000021164B1B688B4226D90023144A02EB8B
:1082B400C10252689A421DD910B4114A52F83120B1
:1082C40002EBC30412F8332082420DD001330C4A6E
:1082D40002EBC10252689A42EFD80131074B1B6886
:1082E4008B4205D90023F2E760685DF8044B7047C0
:1082F4000020FAE70131D4E7002070473041002024
:108304003441002070B58CB006460D4614462C222C
:10831400002101A819F061FD0E238DF80430ADF899
:1083240008604FF0000365F300038DF80A308DF800
:108334000B4001A801F0F8F80CB070BD30B58DB059
:1083440005460C462C22002101A819F046FD0F23F6
:108354008DF8043002958DF80C4001A801F0E4F882
:108364000DB030BD00B58DB048B913F1020F06D081
:1083740001228DF80420029301A801F0D5F8034BE3
:10838400186803F019FF0DB05DF804FB40410020AC
:108394002DE9F041054688460378BBB10D4B1C68B6
:1083A400621C1A6004F00704AB8A0B4F07EBC40687
:1083B4007380A988A869FFF73FFE7060EB6903F03A
:1083C4000103737007F83480BDE8F0817846FFF745
:1083D400A7F9E3E7884100204841002070B506462C
:1083E40003784BB1B58A347F04F00104B188B069D5
:1083F400FFF722FE002304E07846FFF791F9F1E746
:108404000133072B15D80C4A02EBC302526882428F
:10841400F6D1094A02EBC3025288AA42F0D1064AB5
:1084240002EBC3025278A242EAD1034800EBC30034
:1084340000E0002070BD00BF48410020F0B40D688A
:108444004C688F68CE68D5601461576196610D6978
:108454004C69D56114620378DB091370D17DF9B1DD
:10846400037803F07F0393700023537013789BB158
:1084740043789B0103F4FE53817843EA910393808C
:108484008378DB0003F01803C17843EA5113937136
:10849400C37803F01F03D37100235362F0BC704709
:1084A4000178C1F380119170017801F03F01D1701E
:1084B40043B190F90130002B02DB04235370D5E75C
:1084C4000823FBE704235370D0E770B50C461E461F
:1084D40003788BB104252A44A26000F10C032360C5
:1084E400836A6360204604F0C9F9024610B923691F
:1084F4001D443560104670BD0125ECE72DE9F041BF
:108504008EB00D4616461C46804600282DD0002D00
:108514002FD0002C31D0636A0233059304F10C0090
:10852400A378002B2DD00121627801AF3B46082AA5
:1085340014BF0022012203F084FF0697CDF81C80AB
:10854400B2B2ADF820200B9515440C9563788DF8E4
:108554003430237B022B16D00023ADF8283005A835
:1085640003F067FF0EB0BDE8F0817846FFF7D8F856
:10857400CDE77846FFF7D4F8CBE77846FFF7D0F895
:10858400C9E70221D0E723692BB12369099310239A
:10859400ADF82830E3E77846FFF7C2F8F5E72DE9B0
:1085A400F04186B004460D46C37D002B3ED008261C
:1085B40005FB06F8E379AB423AD0A5716B46324627
:1085C40001A92046FFF781FF074648BB4DB994F83F
:1085D4004F3033B9A369C3F30C03A380012384F898
:1085E4004F30E37D7BB994F84E3063B92DBBB4F8BA
:1085F4004610627823468A1AA16E0846FFF77EFF6A
:10860400012384F84E3005992046FFF721FDA16E21
:1086140032464144009819F0B7FB01A804F048F928
:10862400B7FA87F0400906B0BDE8F0810C26BFE731
:10863400B4F84660A6EB0806BFE77846FFF770F883
:10864400D5E770B5054690F84C40002605E00136A4
:10865400631C85F84C300134E4B2EB79A3420AD3AD
:10866400AA6C0123A3401A42F5D121462846FFF7FC
:1086740096FF0028EBD1304670BDF0B587B0457841
:108684001544C37DDBB10B239D4221D816460F460A
:1086940004466B462A4601A9FFF717FF0546C0B9F1
:1086A40005992046FFF7D4FCE37D53B132463946A1
:1086B400009819F069FB01A804F0FAF809E00F2307
:1086C400E2E72346324600993846FFF717FFF2E700
:1086D4000925284607B0F0BD10B5044690F844308B
:1086E400012B0ED1237B012B0FD00C4BDB68A36332
:1086F40003F0B2F8A16B014404F12C0003F03CF840
:1087040010BD7846FFF70CF8ECE7A37D034AD16867
:10871400126902FB0313A363EAE700BF8C41002044
:1087240038B5002400E00134032C13D80A4A6C2322
:1087340003FB042393F84430012BF4D16C2505FB8F
:1087440004252846FFF77DFF0028ECD02846FFF7D4
:10875400C3FFE8E738BD00BFA441002038B5044694
:1087640090F84430022B02D07846FEF7D9FF054B2F
:108774001D6803F071F8411904F12C0002F0FCFFAC
:1087840038BD00BF8C41002038B5044690F8443011
:10879400022B02D07846FEF7C3FF084B5D7D5A6872
:1087A4009B6803FB052503F057F8411904F14C00BD
:1087B40002F0E2FF012384F8643038BD8C410020CC
:1087C40010B504460D4B1B68806E984704F12C00CD
:1087D40002F0BAFF94F84430022B0AD06C22002134
:1087E400204619F0FAFA002084F8440002F078F8E0
:1087F40010BD04F14C0002F0A7FFEFE74441002054
:1088040010B504460121FFF7C3FD2046FFF7D8FF4A
:1088140010BD10B58CB0044690F84430012B02D042
:108824007846FEF77DFF01238DF80430236D029313
:1088340001A800F079FE2046FFF7C2FF0CB010BD7E
:108844002DE9F04104460E4615461F46531EDBB281
:10885400012B46D8A36E13B17846FEF761FF2E4B69
:108864001B6838469847A066002852D033462246F3
:1088740006F12001D3F80080D3F804E0D3F808C04F
:10888400D868C2F80080C2F804E0C2F808C0D0601A
:10889400103310328B42EDD1186859689B68106010
:1088A400516093600023A364A4F84670B188B06952
:1088B400FFF7C2FBA061012D17D06FF00103A36283
:1088C400002384F86430154B6365E465144B6363DB
:1088D400E463012002F004F884F844500120BDE868
:1088E400F0817846FEF71CFFB4E70E4B1B7D84F83D
:1088F4004D30002384F84E3084F84F3084F84C30E7
:10890400B36A23656FF00103A362074B6363E463F7
:10891400DFE70020E3E700BF3C4100206F94020042
:10892400558A02008C410020618A020030B583B070
:10893400C3790133C27D92B1082505FB03F582B1E9
:108944004FF48073AB422AD21E4B1B6813F0040F02
:1089540036D01D4B1B68002B06DC00242DE00C25B3
:10896400EBE74FF4C073EDE7184BD3F804350195EA
:10897400174A009240F263221649012004F0EEFCEB
:1089840000241AE0144C6C2303FB02442B460222FD
:1089940001462046FFF754FF78B900240DE0002279
:1089A400032A09DC0C4B6C2404FB023494F8443095
:1089B400002BE7D00132F3E70024204603B030BD9A
:1089C4000024FAE7443300204033002000B0004084
:1089D4003025040023250400A441002030B585B0CF
:1089E4000D460446A8B100212046FFF7D1FC2946D4
:1089F400206DFFF7A3FC2046FFF7E2FE0F4B1B6838
:108A040013F0040F03D00E4B1B68032B05DC05B0D9
:108A140030BD7846FEF784FEE5E70A4BD3F804350B
:108A240094F8442002950192074A00924FF4D672BA
:108A34000649042004F092FCE9E700BF4433002017
:108A44004033002000B00040B0240400232504007B
:108A540008B508460021FFF7C1FF08BD10B50C4654
:108A640091F84430012B09D194F84D307BB9237B24
:108A7400012B07D02046FFF7CCFE10BD7846FEF749
:108A84004FFEF1E701212046FFF7A8FFF5E7013B80
:108A940084F84D30002384F84C302046FFF7D1FD94
:108AA400EBE70000062900D0704770B582B003469A
:108AB4000178890101F4FE5140789D78DC78240422
:108AC40044EA05641D7944EA05245B791C4341EAC0
:108AD40090011046FFF714FB0546B8B1866C264397
:108AE400866444B3037853B3EB795A1C012393404F
:108AF400013B9E4227D0002385F84C302846FFF7DF
:108B0400A0FD2846FFF7E8FD02B070BD104B1B68BE
:108B140013F0040FF8D00F4B1B68012BF4DD0E4B40
:108B2400D3F804350D4A009240F2B9420C490220B0
:108B340004F014FCE8E70321FFF750FFE4E778466C
:108B4400FEF7EEFDD0E72846FFF763FEDCE700BF43
:108B5400443300204033002000B00040442504008A
:108B6400232504002DE9F04389B080460F461446BE
:108B74001E4695780DB32846FFF792FB8146C8B18F
:108B84008DF80050236A0693A38AADF80E3004AB27
:108B940004F10C0292E8030083E80300A37D8DF83E
:108BA4001C30CDF80480029723788DF80C303146C0
:108BB4006846C84709B0BDE8F083FFF773FFF9E7DB
:108BC40000B585B000238DF80F3098B103460846F0
:108BD40002330B600DF10F0103F02FFC9DF80F30F1
:108BE40043B10D4B1B6813F0040F03D00B4B1B68F0
:108BF400032B04DC9DF80F0005B05DF804FB084B63
:108C0400D3F80435074A009240F2EB2206490420C7
:108C140004F0A4FBEEE700BF4433002040330020FF
:108C240000B0004084250400232504002DE9F0430E
:108C34008FB004460E4615461F46D0F818900378A8
:108C440023B181884846FFF7F7F9A06104F10C00CD
:108C5400A378002B3AD0012162780DF1280843460D
:108C6400082A14BF0022012203F0EBFBC4F8189079
:108C7400CDF8088003966378EA1A92B2ADF8102012
:108C84003244089207978DF824300023ADF8183049
:108C9400237B022B1CD0A3786BB3237B022B1BD02A
:108CA4002546002345F8243F2A46E178206A0DF042
:108CB400CBFE606A98B101A9FFF782FF00283AD180
:108CC4002A46E178206A0DF0BFFEF2E70221C3E7ED
:108CD4001023ADF81830DEE723690593E0E7237B22
:108CE400022B2CD104F10C01E0890DF05BFF00286C
:108CF400D3D1052020E000236362237B012B0DD018
:108D04002146002341F8243FA08A0DF0BAFE01A9B0
:108D1400606AFFF755FFA0B100200DE004F12401C3
:108D2400E0890DF0AEFE01A9606AFFF749FF002853
:108D3400E6D0002000E000200FB0BDE8F08305205D
:108D4400FAE70520F8E7000070B5F0B00D461446C8
:108D54001E4610AB0A4601462046FFF767FFA0B146
:108D64001F4B1B6813F0040F37D01E4B1B68052BD9
:108D740033DD1D4BD3F804351C4A00924FF4A56231
:108D84001B49062004F0EAFA27E003AB01228DF820
:108D94000C20A28AADF80E20002204928DF8142033
:108DA40010AA06926278AD1AADF81C5008AA93E88E
:108DB400030082E803000AAB04F10C0292E803000A
:108DC40083E80300A37D8DF83830236A0C93636A2B
:108DD4000D930F9605A800F0A7FB70B070BD00BFFF
:108DE400443300204033002000B00040A825040094
:108DF4002325040010B5D47D14B9FFF7A5FF10BDD9
:108E0400FFF7B0FEFBE700002DE9F04385B004AFA7
:108E140043781344C47D94B14FF480749C4273D35B
:108E2400EFF3108C72B60024032C10DC3B4E6C253F
:108E340005FB046595F8445025B10134F4E74FF47B
:108E4400C074EBE735466C2606FB045400E00024AE
:108E5400BCF1000F00D162B6002C5AD015460E4664
:108E6400014601222046FFF7EBFC002853D02A4696
:108E74003146A06E18F088FF294B1B6813F0040FCD
:108E84003AD0284B1B68032B36DD6D46B4F846E018
:108E94004FEA4E030833DB08A5EBC3039D460DF1EF
:108EA4001008C446002312E0A26ED25C4FEA1219E5
:108EB40059001D48066816F809600CF8136002F0A2
:108EC4000F0201310068825C0CF801200133734504
:108ED400EAD3002308F81E30144BD3F80435CDF838
:108EE4000880134A0192134A009240F2F732124961
:108EF400042004F033FAAD462046FFF7A2FB2046D7
:108F0400FFF7EAFB002000E009200437BD46BDE876
:108F1400F0830420F9E70420F7E700BFA441002010
:108F240044330020403300204833002000B0004088
:108F3400742504005C2304002325040070B5044652
:108F44000D461646808A01F091FF01281AD1237B31
:108F5400D3B1022B0BD094F91630002B16DB2378F7
:108F640053B9324629462046FFF787FB0BE02369B5
:108F7400002BF0D1102006E0324629462046FFF7A8
:108F840043FF00E0102070BD1020FCE70720FAE743
:108F940008B50549054800F04FF800B908BD784602
:108FA400FEF7BEFBFAE700BF591C0400C51B040012
:108FB40010B5FFF7EDFF4FF4D8720021134818F0F5
:108FC4000CFF05F05DFB0024114B1C604022214680
:108FD400104818F002FF104B104A1A60104A5A60E9
:108FE4004CF250329A600F49D9601A6104221A7502
:108FF4009C7508225A750C4803F0BEF80B4B186098
:109004000B4B1C600B4805F041FC10BDA441002033
:1090140088410020484100208C410020809698001F
:10902400F049020020A107002592020040410020DF
:10903400304100206983020008B50346B0FA80F08D
:1090440040090A46B1FA81F14909884210D14BB16D
:10905400EFF3108072B608490B60084B1A6048B9E8
:1090640062B606E0002AF3D1FFF792FF002000E089
:109074000E2008BD0020FCE73C41002044410020B4
:10908400C0B110B58CB004460369B3B1C369B3B1C0
:109094008369B3B1014601A8FFF780F8034610B114
:1090A40018460CB010BDA28A216901A8FFF746FF3B
:1090B4000346F5E70E23184670470E23F0E70E2308
:1090C400EEE70E23ECE7D0B110B58CB0044640684F
:1090D400B8B1A269BAB1207C022816D0B8B194F90B
:1090E4000020002A15DB0A46214601A8FFF7AAF84A
:1090F400A268616801A8FFF721FF0CB010BD0E2023
:1091040070470E20F9E70E20F7E71020F5E710204E
:10911400F3E70720F1E70000037B012B01D00020D7
:10912400704710B58AB000228388C3F386148DF883
:1091340000409B008DF801300B0E8DF802300B0CB3
:109144008DF803300B0A8DF804308DF805100623D2
:10915400049301238DF81830838AADF81A300792EE
:109164008DF80820CDF80CD0036A08938DF81420EC
:10917400C389ADF81630837D43B98DF824206FF090
:10918400010102A8FFF79FFF0AB010BD024B5B7DEF
:109194008DF82430F3E700BF8C41002038B500245B
:1091A4000BE01E4A6C2303FB0423DB795A1C0123C6
:1091B4009340013B9D4228D00134032C2CD8174AFC
:1091C4006C2303FB042393F84430022BF4D16C2367
:1091D40003FB042393F86430022BEDD16C2000FBD5
:1091E4000420816CFFF798FF0028E5D10B4A6C231B
:1091F40003FB04F3D11881F864008D6CD35C002B5D
:10920400CFD17846FEF78CFACBE7044B6C2000FBF9
:109214000430FFF7F5FACFE738BD00BFA4410020C2
:1092240008B5FFF77DFAFFF7B9FF012008BD00007C
:109234002DE9F04182B007460E4614469846104682
:10924400FEF788FF054620B1A28883889A4210D38E
:1092540012D82046FFF7C2F8B8B103784BB123788F
:109264007BB1E1794B1C0121994001392046FFF77C
:1092740053FF02B0BDE8F0810521FFF7AFFB0025E5
:10928400E7E77846FEF74CFAEBE7002D4FD0464B64
:109294001B6813F0040F03D0444B1B68032B55DCED
:1092A4002846FFF75BFA2B7B012B5DD0AA6CA179D2
:1092B40001238B401A42DCD11343AB64A279EB79CE
:1092C4009A4259D0E37D002B61D00823B34260D188
:1092D400AB6EA079E27D002A60D00824324639467C
:1092E40004FB003018F050FDAC6C2B78002B57D0E9
:1092F400EB795A1C01239340013B9C42B9D10223D0
:1093040085F86430A96C2846FFF706FF04464346F7
:109314002A46B5F84610A86EFFF76CFD002CA8D1BC
:10932400002385F864302846FFF76AFAA1E720464F
:10933400FFF7FCFA05460028A9D100212046FFF7D3
:10934400EBFE02210020FEF7F9FF92E7184BD3F859
:109354000435A2790192174A009240F2A7221649D5
:10936400042003F0FBFF9BE795F86430002B9DD1AC
:109374002846FFF709FA99E79BB2E27D2AB1082251
:1093840003FB0263A5F84630A2E70C22F8E70C239E
:109394009CE704212846FFF721FB6AE70C249DE79C
:1093A4007846FEF7BDF9A3E744330020403300209C
:1093B40000B0004098250400232504002DE9F04165
:1093C4008EB000284DD00546002A4CD0984614464D
:1093D4000F4600220C920D920CA960880DF0E2FB5E
:1093E40020B9002630460EB0BDE8F081226902F0B3
:1093F4000102E168208905F011F908B10026F1E7BE
:10940400226902F00102E168208905F0D5F80646D8
:10941400C0B901AA21462846FFF710F804AB0EAAEA
:1094240012E9030083E8030002F064FE9DF80430AF
:1094340083B1434601AA391F281DFFF7F9FE02F044
:1094440079FECFE72169002201F001012089FEF7AE
:1094540059FFC7E7434601AA791E681CFFF7CAFCF7
:10946400EDE70E26BEE70E26BCE710B50C4691F8D4
:109474004430022B0BD1022384F86430A16C2046C3
:10948400FFF74AFE10B9002384F8643010BD784613
:10949400FEF746F9EFE70000F8B500B30546164BB2
:1094A4001F68F7B90E463C46B4420ED205EBC4031E
:1094B4005B68CBB115F8340010F0800F16D1B8B149
:1094C400FEF7EEFEB0B90134EEE70C4B43F837502B
:1094D40003EBC7035E607B1C074A136002E00E27A0
:1094E40000E004273846F8BD0E27FBE70B27F9E711
:1094F4000F27F7E70F27F5E730410020344100201C
:10950400084B196861B110B501E021463CB10C6803
:109514000B79002BF9D0034803F089FEF5E710BD61
:10952400704700BF5843002038B5054630B1104B92
:109534001C68ACB10F4B01221A7004E07846FEF7A8
:10954400EFF8F4E724683CB12379002BFAD154F8FE
:10955400043C28469847F5E7064B1B78022B00D0BD
:1095640038BDFFF7CDFF034B00221A70F8E700BFA8
:10957400584300205443002010B5044630B1002362
:109584002372211D034803F027FE10BD7846FEF721
:10959400C7F8F4E75843002010B5044650B10A4B0D
:1095A4001B78013BDBB2012B08D9211D074803F0CE
:1095B4003EFE10BD7846FEF7B3F8F0E7024B0222F8
:1095C4001A7001232372F4E7544300205843002007
:1095D4000A8883689B5A07339BB223F0030313441E
:1095E4009BB20288043A934200D900230B8070474F
:1095F40010B582B004468368CB1A02A921F8023D53
:10960400FFF7E6FFBDF80630A068184402B010BDAD
:109614000088043880B2704743888268D018D152D9
:109624000123837070478268002393704380838092
:109634007047073189B221F0030189B242888388D7
:109644009A4204D29B1A99421CDC0020704710B540
:109654009A420FD90488A41AA14215D98B4215D372
:10966400032C03D98368134404229A700023438093
:10967400184606E0826813449B784BB9FFF7D3FF82
:10968400002010BD042070470020FAE70420F8E70A
:109694000420F6E738B504460D46836882881344EF
:1096A4008B4202D07846FEF73BF80023AB70211DB5
:1096B4002046FFF78DFFA288A36813449B78042BF0
:1096C40000D038BD0023A380FBE710B50C468368A7
:1096D400428813448B4202D07846FEF721F80023D7
:1096E400A37010BD70B5064615460C46002944D03B
:1096F400002E46D0B4F1005F08D94FF08053D3F860
:109704000C3103F50023B4EB832F0ED3B4F5000F13
:1097140008D94FF08053D3F80C3103F50053B4EB60
:10972400832F02D37846FDF7FBFF6B1E2344B3F16E
:10973400005F08D94FF08052D2F80C2102F50022C4
:10974400B3EB822F0ED3B3F5000F08D94FF080523C
:10975400D2F80C2102F50052B3EB822F02D37846E3
:10976400FDF7DEFF042D10D9358000237380B3800C
:10977400B460043D2580A37070BD7846FDF7D0FF2A
:10978400B6E77846FDF7CCFFB4E77846FDF7C8FFA7
:10979400EAE738B50446A0B16288A36813449B780D
:1097A400012B12D0A388A1681944EFF3108572B677
:1097B4008B78032B0DD02046FFF735FF05B962B631
:1097C40038BD7846FDF7ACFFE6E77846FDF7A8FF1D
:1097D400E8E72046FFF70CFFA368C31A6380002361
:1097E4008370EBE7F8B50E4615460446C0B1DEB10A
:1097F4006288A36813449B78012B19D0E5B12046F5
:10980400FFF706FFA84219D329462046FFF711FFA8
:109814000746A0B929462046FFF7FEFE30600EE059
:109824007846FDF77DFFE2E77846FDF779FFDFE74D
:109834007846FDF775FFE1E7092700E00927384678
:10984400F8BD70B50C4616460546B8B1D4B1A37838
:10985400012B1BD12388B3421CD3FEB126800223E3
:10986400A370E9182846FFF7B3FE6A88AB889A42CA
:1098740003D0AB68134400229A7070BD7846FDF79C
:109884004FFFE3E77846FDF74BFFE0E77846FDF747
:1098940047FFDFE77846FDF743FFDEE77846FDF74D
:1098A4003FFFDBE738B50D46044668B185B1A288B1
:1098B400A36813449A78042A0ED09A78022A13D003
:1098C400032A16D0052013E07846FDF729FFEDE7BB
:1098D4007846FDF725FFEAE7211D2046FFF778FECD
:1098E400A288A3681344E8E703229A702B6000203F
:1098F40038BD7846FDF714FF0020F9E710B504469B
:1099040058B1A088A16801448B78042B09D08878C9
:10991400022814BF0020012010BD7846FDF700FF87
:10992400EFE72046FFF764FE0146F0E710B5044672
:1099340018B1A088A168014407E07846FDF7F0FE5D
:10994400F7E72046FFF754FE01468878C31EDBB2D2
:10995400012BF6D9022814BF0020012010BD38B510
:109964000C46054650B16CB1A378012B0ED0032BE5
:1099740011D121462846FFF78DFE38BD7846FDF704
:10998400CFFEF0E77846FDF7CBFEEDE7214628460B
:10999400FFF79BFEF1E77846FDF7C2FEEDE7000016
:1099A40008B5064B986800221A605A609A60DA601B
:1099B4001A615A619A6104F055FC08BD5C430020A9
:1099C40000B585B00A4BDB6802228DF800200193B4
:1099D4004FF480530293074A6946012001F0AAF923
:1099E40018B1002005B05DF804FB0120FAE700BFC0
:1099F4005C4300207843002000B585B00A4B1B6807
:109A040002228DF8002001934FF480530293074AF9
:109A14006946012001F08EF918B1002005B05DF807
:109A240004FB0120FAE700BF7C43002078430020B8
:109A3400164BDA68137951795B1A03F57F2303F621
:109A4400FF7302EB03339A4205D002F580520F4BA9
:109A5400DA600320704700B585B00D4B1B68012008
:109A64008DF8000001930B4B0393042302930A4ADD
:109A7400694601F05FF918B1002005B05DF804FBF8
:109A8400024B01221A760220F7E700BF5C43002054
:109A94007C430020804300207843002000B585B03B
:109AA4000C4BDA680C4B1B68043301208DF8000062
:109AB4000192039340F6FC730293084A694601F04D
:109AC40039F928B90120034B187605B05DF804FB79
:109AD4000020FAE75C4300207C4300207843002008
:109AE40000B585B00A4B1B6801208DF80000019376
:109AF400084B039304230293074A694601F01AF9B9
:109B040018B1002005B05DF804FB0120FAE700BF9E
:109B14007C430020684300207843002010B584B0C3
:109B2400114BDA681478114B1B68043301208DF84B
:109B340000000193039202940D4A694601F0FAF879
:109B440080B90A4B1B6804F0FC041C440434064B23
:109B54005C61D9680A780A441A6100225A760120A5
:109B640004B010BD0020FBE75C4300207C430020D0
:109B74007843002008B50023092B09D8064A52F877
:109B84002320824201D00133F6E7044A536002E005
:109B94007846FDF7C5FD08BDD42504005C430020CC
:109BA40010B5214BDB6853B11F4B1B7E5BB91E4BB9
:109BB4005B68092B15D97846FDF7B2FD11E07846AC
:109BC400FDF7AEFDF0E77846FDF7AAFDEFE7164B8B
:109BD40000225A60012C01D0032C23D1124B1B7E8E
:109BE40003BB114B5A68114B53F822309847044673
:109BF40002280DD00328EAD00128EBD10A4A536881
:109C040001335360092BE5D97846FDF789FDE1E777
:109C1400054B1B7E1BB1044B02221A70DAE7FFF7D7
:109C2400BFFED7E710BD00BF5C430020D42504006D
:109C3400104B1B681B685A1E12F1030F18D8C3F38C
:109C44000B020AB10020704710B50B4AD360002301
:109C5400137653760124147093600848FFF78AFF43
:109C64000749204601F054F8FFF79AFF204610BD3B
:109C7400002070477C4300205C430020C59902000B
:109C8400899C020008B50B78032B06D00B4B1B787C
:109C9400012B06D0022B0BD008BD084B00221A76EC
:109CA400F4E7064B1B7E002BF6D1FFF779FFF3E7B1
:109CB4000B78032BF0D1FFF773FEEDE75C43002034
:109CC40000B585B0174BDB6818784FF6FF7203F5C3
:109CD4008051184404F090FDF0B10246114BD9684C
:109CE4000B780B44984219D00E4B5B7E93B10E4B0C
:109CF40001208DF8000001920393042302930B4A80
:109D0400694601F017F858B90120064B187605B0DA
:109D14005DF804FB064BEBE70120F8E70120F6E7CA
:109D24000020F4E75C43002054280400784300201A
:109D34005028040008B5104BDB681878002203F59E
:109D44008051184404F058FD08B1012008BD0A4BA5
:109D5400DA68137951795B1A03F57F2303F6FF73ED
:109D640002EB03339A4205D002F58052024BDA60CB
:109D74000320EBE70220E9E75C430020F0B585B05F
:109D8400524BDE6872793379591E8A4200F096800C
:109D940006F580510D780D444D490968081D0F7969
:109DA40007449B1A03F57F2303F6FF731B0303F594
:109DB40080531E446B88013B9BB247F6FE6293427C
:109DC4005CD92C4616E07846FDF7AAFC15E024F48D
:109DD4007F6424F00F0404F5805423781C44A642C5
:109DE40047D9A54247D26388013B9BB247F6FE623E
:109DF400934211D92388002BE5D0238804EB8303F5
:109E040023F47F6222F00F029342E0D06288B2F51D
:109E1400FE4FDCD01C46E2E725462FE07846FDF7EE
:109E24007FFC15E024F47F6424F00F0404F58054CF
:109E340023781C44A64220D9A5423BD26388013B27
:109E44009BB247F6FE62934211D92388002BE5D0DA
:109E5400238804EB830323F47F6222F00F029342EE
:109E6400E0D06288B2F5FE4FDCD01C46E2E725461E
:109E740004E0002502E0002500E00025E5B1144BD4
:109E840019686A8801F58051384604F0B5FC074624
:109E9400B8B101200D4B18768DF8000001950D4BDB
:109EA4000393042302930C4A694600F043FF50B91C
:109EB4002C46CAE70025E1E7012000E0012005B0B7
:109EC400F0BD0120FBE70020F9E700BF5C43002060
:109ED4007C4300204C280400784300202DE9F04105
:109EE40086B06A4B1B692BB1684B5B6933B14FF089
:109EF400000848E07846FDF713FCF5E77846FDF7DF
:109F04000FFCF4E77846FDF70BFC15E025F47F65BC
:109F140025F00F0505F580552B781D44AE421CD95C
:109F2400AC421ED26B88013B9BB247F6FE62934261
:109F340011D92B88002BE5D02B8805EB830323F460
:109F44007F6222F00F029342E0D06A88B2F5FE4F9E
:109F5400DCD01D46E2E72C4600E000241CB100944E
:109F640045E00024FAE700230093019B002B68D10D
:109F74004FF0010824B1628847F6FF739A4202D178
:109F8400424B01225A76414B5B7E002B7AD1B8F1C9
:109F9400000F75D13D4B5A6922F47F6727F00F07F4
:109FA400BF1A07F580571C69DE68337972799B1AEA
:109FB40003F57F2303F6FF731B0303F580531E444D
:109FC400002301936388013B9BB247F6FE629342F0
:109FD400C5D92546ADE77846FDF7A2FB22E024F477
:109FE4007F6424F00F0404F5805423781C44A642B3
:109FF400BBD92388019A02EB83029742B5D9009B0F
:10A00400634023F47F6323F00F03002BADD16388F7
:10A01400013B9BB247F6FE618B42A6D8019223888E
:10A02400002BD8D0238804EB830323F47F6222F02F
:10A034000F029342D3D06288B2F5FE4FCFD01C46B4
:10A04400D5E7124A526901208DF808000392009A5C
:10A05400059204930E4A02A900F06CFE70B90B49F4
:10A06400019B23F003024B6913444B6114B1074B6A
:10A074001C617FE77846FDF753FBF8E7002002E018
:10A08400012000E0012006B0BDE8F0815C4300201F
:10A094007843002008B54FF010235B69B3F1FF3F0C
:10A0A40003D04FF010235B6963B94FF080525169BC
:10A0B400136903FB01F3A3F58053054A1360FFF70B
:10A0C400B7FD08BD4FF010235B69A3F58053F2E799
:10A0D4007C430020024B1878003018BF01207047E1
:10A0E4005C43002010B504460E4B1B78ABB92378B3
:10A0F400032B02D07846FDF713FB0A4B9C60E26801
:10A10400DA6000225A601A76012018705A760649DD
:10A1140000F0FEFDFFF744FD10BD7846FDF700FB9F
:10A12400E5E700BF5C430020899C0200014B1868EE
:10A13400704700BF7C43002010B5044680B16368BB
:10A144001BB123680BB1A36813B97846FDF7E8FA8D
:10A15400A3685A1E134207D10023E360236110BD94
:10A164007846FDF7DDFAEAE77846FDF7D9FAF3E732
:10A17400F8B5F8B10446F9B18268FAB1EFF3108585
:10A1840072B6026980680244E668B24203D1C5B976
:10A1940062B6042513E027686368013830401A4624
:10A1A40000FB037017F0F0FDE3680133E36055B979
:10A1B40062B604E00E2502E00E2500E009252846DB
:10A1C400F8BD0425FBE70025F9E770B5F0B10446B6
:10A1D4008268EAB1EFF3108572B60669C2689642E6
:10A1E40010D0084621686268A368013B1E4006FB44
:10A1F400021108B117F0C8FD23690133236165B961
:10A2040062B606E03DB962B6052502E00E2500E01F
:10A214000925284670BD0525FBE70025F9E7000060
:10A22400C0F30B0333BB39B301F6FF71090B134BB6
:10A234000222C3F80425114BD3F80034002BFAD0C2
:10A2440000220AE00D4BC3F808050C4BD3F8003488
:10A25400002BFAD000F5805001328A42F2D3074B2A
:10A264000022C3F80425054BD3F80034002BFAD0A0
:10A2740000207047102070470920704700E001401B
:10A2840010F0030F2FD111F0030F2FD182B312F06E
:10A29400030F2FD110B49208174B0124C3F80445BF
:10A2A400154BD3F80034002BFAD002E0043004310B
:10A2B4002246541E52B10B68B3F1FF3FF6D003603F
:10A2C4000D4BD3F80034002BFAD0EFE70A4B0021F2
:10A2D400C3F80415084BD3F80034002BFAD0104609
:10A2E4005DF8044B70471022104670471022FBE7BC
:10A2F4000922F9E70922F7E700E001400180002381
:10A30400438042607047000038B5124C4FF48055CA
:10A314002A460021204617F060FD0F4B1C600AE01E
:10A32400002228212046FFF7E9FF2388083323442D
:10A334006360303D1C46502DF2D8083D05D0002204
:10A34400A9B22046FFF7DAFF38BD7846FDF7E8F9F1
:10A35400F5E700BF844300208453002008B5082299
:10A364000221084803F0FFFD38B1074A91684160B3
:10A37400127B027203F030FE08BD044803F04AFF6A
:10A38400FAE700BF90530020DC5300200433002080
:10A394000E4B1B78CBB910B50D4B5C6804F500541B
:10A3A400B4F1807F00D910BD04220121094803F0D3
:10A3B400DAFD30B14460054A0121117003F00CFE4E
:10A3C400F1E7054803F026FFEDE77047F05300205E
:10A3D400DC53002090530020F432002010B50446D2
:10A3E40008B1A04710BD7846FDF79AF9F9E70000D7
:10A3F40008B501210C4803F017FE20B902210A48D0
:10A4040003F012FE28B1094803F004FFFFF7C0FF70
:10A4140008BD074A0023136053609360D36013613F
:10A42400044A1370F2E700BF905300202433002045
:10A43400DC530020B453002000B58DB004918DF896
:10A44400082003900CA8022300F82C3DFFF76CF8B9
:10A454000DB05DF804FB000010B58CB00C4682B959
:10A464004B88012B20D1134B1B7833B16268124BFC
:10A474005A60104B00221A7016E07846FDF750F926
:10A48400F4E7032A12D12C22002101A817F0A5FC1D
:10A4940010238DF804300394084BDA6805921B6985
:10A4A400069301A8FFF740F80CB010BD7846FDF7FD
:10A4B40037F9E8E7F0530020DC53002090530020E4
:10A4C40038B503F0BFFE28B901F0DEFE0028F8D04D
:10A4D40020BFF6E701F00EFE002211461A4803F0F1
:10A4E4009CFC00252C4605E0051D0246002116486B
:10A4F40003F093FC30B14388012BF5D0022BF4D147
:10A50400041DF2E7A4B19DB12268104B9A60227930
:10A514001A73AC4201D9237993B12A680B4B1A60A0
:10A524000A4B1A685A60FFF733FF01F003FE38BD87
:10A53400064B00221A609A601A73FFF70FFFEFE7C9
:10A54400024B00221A60EBE790530020DC530020FA
:10A5540008B503F0B9FEA0F5805008BD00B587B07A
:10A564000023009301930293039304930593FFF74D
:10A57400EFFF009001230193064B039369460648BD
:10A5840003F002FE10B907B05DF804FB034803F0C2
:10A5940041FEF8E75DA4020090530020143300202C
:10A5A40010B50B4B00241C605C609C60DC601C617B
:10A5B40001F052F9074B5860074A9A60074ADA607B
:10A5C4001C615C61064B1C70FFF7C8FF10BD00BF27
:10A5D400DC530020B85300201DA70200008793031A
:10A5E400F153002008B5084B1B7803B108BD074898
:10A5F400074B036000F010FE064801F07FF8024BA1
:10A6040001221A70F2E700BF8C530020D0530020BF
:10A6140049A80200B853002038B501F06BFD174B70
:10A624001B7B13BB154B9B7B23BB144B1A8A41F238
:10A6340082639A4204D8124B1B78A3B1012300E031
:10A644000123CBB10D4D01232B7300242C82AB6865
:10A654000133AB60FFF782FEA9682A7B01392046EB
:10A66400FFF7EAFE02E00023EBE7082401F062FDB5
:10A67400204638BD0824F9E70824F7E7DC53002016
:10A68400F153002010B501F035FD214B5B7B9BB1EC
:10A694001F4B9B7BF3B91E4B1A8A41F282639A4289
:10A6A40004D81C4B1B782BB1012300E001239BB180
:10A6B400012302E00023FAE700231C461BB3144BDA
:10A6C40000225A731B7B4BB1012B0ED07846FDF749
:10A6D40027F818E00023F0E70023EEE7FFF79CFFDC
:10A6E40088B17846FDF71CF80DE0094B002018608E
:10A6F40058601873188202469968FFF79DFEFFF7A9
:10A704002DFEFFF745FE01F015FD204610BD00BFEC
:10A71400DC530020F153002008B5214B1B7B7BB197
:10A72400012B20D07846FCF7FBFF1D4A138A013326
:10A7340013821B4B5B8A13B1013B194A538208BD38
:10A74400174B1A8A41F282639A4204D8154B1B783C
:10A754003BB1012300E00123002BE6D0FFF792FF79
:10A76400E7E70023F8E70E4B1B8A41F2826293422B
:10A7740004D80C4A127872B1012200E00122002AA6
:10A78400D3D042F2B012934207D9054B01225A7337
:10A79400FFF778FFCDE70022F1E7FFF773FFC4E787
:10A7A400DC530020F153002038B5254B1B7B002BD4
:10A7B40036D10446224B5B8A33BB1AB9204B9B68C3
:10A7C4008B4205D302B31E4B9B6801338B421BD2D1
:10A7D4001B4B9B682A338B4224D3194B9B7B0BBBAB
:10A7E400174DA9602B606B602B8242F606526A8279
:10A7F4006B732B73FFF7B2FDFFF7CAFD2A7BA968C1
:10A804002046FFF719FE0DE062B10D4B9B68013342
:10A814008B4207D10A4B01225A73FFF733FF01E041
:10A82400012B00D038BD002AFCD1054B9B688B421C
:10A83400F8D1034B01225A73FFF724FFF2E700BF5C
:10A84400DC5300200378042B00D0704743681B7846
:10A85400002BFAD010B58468027E437E012A14BF0F
:10A8640000220122416904F11000FFF79DFF10BD91
:10A8740010B5184B1A685B689A4225D20446154BEA
:10A884001B7B012B13D0144B9A4212D2114B1A6822
:10A894005B68403B9A4214D2EFF3108072B60D4AC3
:10A8A4001368591C1160236090B962B610BD0B4B3C
:10A8B400EAE7084B01225A73FFF7E4FE0028EBD1C4
:10A8C400E4E7FFF765FDE7E7FFF762FD0F20EDE73B
:10A8D4000020EBE7DC530020FFFF7F0000E0FF00D7
:10A8E40008B568B90C4B1B6893B10B4A1368013B5C
:10A8F400136063B9094B00229A73FFF7C3FE06E0A5
:10A90400064B01229A73044A13680133136008BD8D
:10A914007846FCF705FFE8E788530020DC53002065
:10A9240000B58DB0ADF808008DF8102003910CA887
:10A93400032300F82C3DFEF7F7FD0DB05DF804FB92
:10A94400014B9868704700BFDC530020054B1B7B0C
:10A95400012B02D0034B98687047024B986801386A
:10A96400704700BFDC530020044B9B68584010F034
:10A97400010F00D0013B1846704700BFDC53002094
:10A98400014B187B704700BFDC53002038B50A4BDD
:10A994001B7873B9084B01221A70084DA8602973FB
:10A9A400FFF7DCFC00242C606C60FFF7F1FC204610
:10A9B40038BD0820FCE700BFB4530020DC5300205E
:10A9C4002DE9F041002724E02449BC2303FB04F3D0
:10A9D400CA5A0132CA520221284602F06FFA0136DD
:10A9E4000221284602F03AFA80B11C4ABC2303FB38
:10A9F4000423D3F80880B8F1000FE5D0BC2303FB8F
:10AA040004F3D25A01463846C047DDE78EB9013710
:10AA1400FFB2022F1FD83C46BC2303FB07F30833C5
:10AA24000E4D1D4404350221284602F017FA002673
:10AA3400DAE70021284602F0A9FA0828E7D1074BF3
:10AA4400BC2202FB0434A368002BE0D0002204499A
:10AA540038469847DBE70120BDE8F081FC5300202D
:10AA6400FC25040008B5082383731023437300F105
:10AA74001C0343610323037300F1180303610C30C7
:10AA840002F056FA08BD000008B50378012B06D081
:10AA9400022B07D07846FCF743FE002001E04FF478
:10AAA400A97008BD0048FCE7645E010008B502789F
:10AAB400012A07D0022A13D07846FCF731FE4FF45E
:10AAC400FA7308E083685B1A98084FF4A97303FBD0
:10AAD40000F303F5FA730748984228BF184608BDE7
:10AAE40083685B1A180B044B03FB00F303F5FA733A
:10AAF400F1E700BFA0860100645E010010B50446C2
:10AB040001210C3002F0AAF9A0B10D4AC4F89C202E
:10AB14000022C4F8A0206168FFF7C8FFC4F8A800A9
:10AB2400C4F8AC40012384F8B83004F19C000CF064
:10AB340089FD00B910BD7846FCF7F2FDFAE700BFC5
:10AB440045AC0200F8B506460C461746156803786E
:10AB5400012B18D11249A1FB0431C9098900B46839
:10AB6400641B8C4200D30C468CB1706825F003053D
:10AB7400F168224629442844FFF782FB58B93B6810
:10AB84001C443C60F8BD7846FCF7CAFDE2E7784611
:10AB9400FCF7C6FDE9E77846FCF7C2FDEFE700BF26
:10ABA400EB5DF260F8B507460C4616461568037867
:10ABB400022B16D1114BA3FB04231B0C1B03BC68F3
:10ABC400641B9C4200D31C467CB1786825F00305C5
:10ABD40021462844FFF724FB58B933681C443460E9
:10ABE400F8BD7846FCF79CFDE4E77846FCF798FD51
:10ABF400EBE77846FCF794FDEFE700BFB77609BBB7
:10AC040038B505460C4611462378012B06D0022B95
:10AC14000FD07846FCF784FD002304E0021D204693
:10AC2400FFF790FFA3686868984214BF00200120D2
:10AC340038BD021D2046FFF7B5FFA368F3E7000007
:10AC44002DE9F8430F46D1F8A850234B1B7863B97C
:10AC54000646A5F5FA7501F10C090121484602F0F2
:10AC6400FDF8804640B1002422E00CF027FD0023CB
:10AC740087F8B830BDE8F8837846FCF751FDF2E771
:10AC84000CF01CFD0121484602F018F900237B60FA
:10AC940087F8B830114B186801F08EFA3846FFF780
:10ACA4002DFFE7E74046FFF7EFFE2044A8420CD80B
:10ACB4002A1B41463846FFF7A3FF0028E0D100F0E5
:10ACC400CBFD841BEED5341AECE70CF0F7FC3846C8
:10ACD400FFF714FFCEE700BFF8530020F453002021
:10ACE40010B5084801F048FA074B1860002406E044
:10ACF400064BBC2000FB0430FFF7B4FE0134022CE9
:10AD0400F6D910BDC5A90200F4530020FC5300205D
:10AD140038B504460D46022805D8054BBC2202FB73
:10AD24000434A56038BD7846FCF7FAFCF5E700BFAB
:10AD3400FC5300202DE9F84306460C46174602282A
:10AD440016D8CCB12378012B1AD0022B3ED16368DC
:10AD5400C3F30B03002B31D1A368C3F30B03002B04
:10AD640030D1A368002B34D17846FCF7D9FC30E00D
:10AD74007846FCF7D5FCE4E77846FCF7D1FCE1E73C
:10AD8400636813F0030F0DD1E36813F0030F0DD1C3
:10AD9400A36813F0030F0DD1A368D3B97846FCF769
:10ADA400BFFC16E07846FCF7BBFCEDE77846FCF701
:10ADB400B7FCEDE77846FCF7B3FCEDE77846FCF723
:10ADC400AFFCC9E77846FCF7ABFCCAE77846FCF76A
:10ADD400A7FCEFF3108872B6BC2505FB06F505F158
:10ADE4000803204D1D4404350021284602F036F89E
:10ADF400814668B30021284602F060F82068616843
:10AE0400A268E368C9F80000C9F80410C9F808206A
:10AE1400C9F80C302FB1134ABC2303FB06235B880B
:10AE24003B80104ABC2303FB06235A8801325A8014
:10AE340093F8B83073B90C4B1B780BB100200AE0BF
:10AE4400084BBC2000FB0630FFF758FE002002E050
:10AE5400042000E00020B8F1000F00D162B6BDE884
:10AE6400F88300BFFC530020F853002018B1830B73
:10AE7400024AD05C70470020704700BF0C260400D3
:10AE840012DF704700B583B01378A3B1042B14D13B
:10AE9400072110F8013C163B152B31D8DFE803F0ED
:10AEA4005930303030303030303030303030303075
:10AEB4003030302E0F3A517DEBE70021E9E70229CB
:10AEC40001D007291CD110F8021C013901F056FDEC
:10AED400B0B1264B1B6813F0400F11D0244B1B68F4
:10AEE400012B0DDD234BD3F804350190224A009247
:10AEF4008A222249022002F031FA01E0022902D01A
:10AF040003B05DF804FB10F8021C0139C9B212F059
:10AF1400B7FCF5E70229F3D110F8021C0139C9B2D4
:10AF240003F0DCFB0028EBD0104B1B6813F0400F40
:10AF3400E6D00F4B1B68012BE2DD0E4BD3F8043532
:10AF440001900F4A00929D220C49022002F006FA59
:10AF5400D6E701884FF6E4639942D1D110F8021C78
:10AF640003390230FCF732FBCAE700BF4433002048
:10AF74004033002000B00040AC2604009F260400AB
:10AF8400D826040070B58AB00DF0DCF858B3064634
:10AF940000238DF8103005AC05460FCD0FC42B6887
:10AFA4002360727D052A04D9337D03F00F03072B38
:10AFB40020D1184B1B689BB104AB0393337DC3F3BF
:10AFC40003038DF80430737D062B1DD9063B8DF8E1
:10AFD400053006F11D0302930E4B1B6801A8984728
:10AFE40030460DF08FF80DF0C7F880F00100C0B2C4
:10AFF4000AB070BD307D04AB063A06F11D0100F0C5
:10B004000F000BF073FED4E700238DF80530029394
:10B01400E2E700BF3456002070B582B02F4B1B7896
:10B02400002B52D1002854D0067A0F2E01D0072EBF
:10B0340051D10446C06870B1FCF784FF0DF10700DC
:10B04400FFF71EFF0546002840D19DF80730012B6D
:10B0540004D002253AE0FCF783FFEFE7FCF796FF04
:10B0640000F03AFB304601F00DF8E07800F058F9B2
:10B0740000F012FF0CF0A4FA19480DF019F90BF0C6
:10B08400D3FFFFF72DFE04F087FB00F055FD05F01C
:10B09400CBF9204601F0DAFB2046FDF789FF03F0E7
:10B0A400F1FE2046FFF730F9FCF790FA18B10628B4
:10B0B40001D005460AE00B480BF0FAFD0A4B0022CA
:10B0C4001A60064B01221A7000E00825284602B0D7
:10B0D40070BD0E25FAE70725F8E700BF31560020BA
:10B0E40089AF0200343300203456002030B583B0D9
:10B0F400204B1B78002B35D01F4B1B78002B33D1F2
:10B1040000F0F0FEC0B90CF07DFA044668BB0CF008
:10B11400B9FF01F0ADFBFCF759FA0546F0B106287A
:10B124001CD0164B1B6813F4804F21D0144B1B68A2
:10B13400012B05DC044618E07846FCF7F1FAE2E757
:10B14400104BD3F8043501900F4A00924FF4C472A7
:10B154000E49022002F002F92C4606E0064B0122B9
:10B164001A7002E0082400E00824204603B030BD31
:10B174000446FAE7315600203056002044330020BC
:10B184004033002000B00040282604009F2604001D
:10B1940010B5094B1B785BB10CF044FA044640B976
:10B1A4000CF086FF00F008FF034B00221A7000E049
:10B1B4000824204610BD00BF3056002030B583B0AF
:10B1C40004460D460E4B1B6813F4804F03D00D4B01
:10B1D4001B68062B05DC29462046FDF751FF03B00A
:10B1E40030BD094BD3F80435084A0192084A00924D
:10B1F4004FF4D7720749072002F0B0F8EBE700BF1D
:10B20400443300204033002000B0004010260400E6
:10B21400602304009F26040008B5FEF7ADF908BDBD
:10B2240008B500F00FFE002008BD08B506F0B6FC16
:10B2340008BD0000064A136801331360B3F1704F70
:10B2440002D0034B18687047134601221A60F8E7CE
:10B254003856002010B5044618B1002323606360FB
:10B2640010BD7846FCF75CFAF7E738B50C4605469E
:10B2740068B184B100236360EFF3108372B62A6867
:10B284006AB16A6854606C6003B962B638BD7846C6
:10B29400FCF746FAEDE77846FCF742FAEAE72C6059
:10B2A400F1E710B5044658B1EFF3108372B6206885
:10B2B40008B142682260226832B103B962B610BD97
:10B2C4007846FCF72DFAEFE76260F6E710B504461E
:10B2D40008B1206810BD7846FCF722FAF9E735DF9B
:10B2E40070473CDF7047000010B504464FF0FF3054
:10B2F400FFF7F5FF4FF0FF312046FFF7F2FFBFF3F2
:10B304004F8F0549CA6802F4E062044B1343CB60D3
:10B31400BFF34F8F00BFFDE700ED00E00400FA0526
:10B32400072814D8DFE800F0080C1504110F0A06EA
:10B334006420704714207047FA2070471E2070471D
:10B344004FF4FA707047322070474B207047FA2050
:10B354007047962070470000024B5868103840B27E
:10B36400704700BF00ED00E0034600280FDB5B11CF
:10B37400084A52F82330424200F01F0002F01F0234
:10B3840058BF504223FA00F000F00100704700F16A
:10B394001F03ECE700E100E046DF7047F8B5044620
:10B3A4000D464B1EDBB2012B09D8002222616261DB
:10B3B400A261E2612046FFF7EFFF012616E078461E
:10B3C400FCF7AEF9F1E7CA5CC8185200D2B2407873
:10B3D40042EAD012CA5401339BB20E2BF3DDCB7B6D
:10B3E4005B00CB73002F08DB0136F6B2AE420BD8FC
:10B3F400214611F9207F0023EFE794F82F3083F0E2
:10B40400870384F82F30EFE7F8BD2DE9F04190B0C1
:10B4140084460C4696461F4602F10F0636111FFA63
:10B4240086F804AD0068DCF80410DCF80820DCF8C9
:10B434000C300FC50EF00F05B8F1000F02D085B126
:10B44400002300E0002398466BB1012104A8FFF714
:10B45400A5FFB8F1000F1BD0B0B2013800011023D2
:10B464000EE00123EFE70221F0E7013B9BB2221833
:10B47400D25C10A9194411F8101C4A400DF803209D
:10B48400002BF2D100250C950D950E950F9534E007
:10B49400B1B20139ADB22A4604EB0111684616F087
:10B4A40073FC80230DF805306B1C03E000220DF8BB
:10B4B400032001330F2BF9DD10230AE0013B9BB27B
:10B4C4001DF8032010A9194411F8101C4A400DF866
:10B4D4000320002BF2D1D5E7013B9BB210AA1A44FA
:10B4E40012F8102C2118C95C4A4008A9CA54002B30
:10B4F400F2D104A8FFF750FF0135B3B2013BAB42D0
:10B5040002DD28011023F2E710230AE0013B9BB27D
:10B5140010AAD11811F8402C11F8101C4A4008A99F
:10B52400CA54002BF2D104A8FFF736FF0CAC0FCCA1
:10B5340038607960BA60FB6010B0BDE8F08100004B
:10B544000A4B1B68834207D0084B1B6853B15A69E6
:10B55400824205D01346F9E74269044B1A6001E0C0
:10B5640042695A6100230370704700BF40560020AF
:10B5740010B50446134B1B684BB14068114B1B6854
:10B584005B68C31A002B02DB0E4B19680DE00D4BF0
:10B594001A6862611C600B4A938801339BB29380E2
:10B5A40063B10123237010BD19464B691BB15A685E
:10B5B400121A002AF8DB63614C61ECE77846FCF769
:10B5C400AFF8EEE74056002038B5054619E0636948
:10B5D400214A13600023636193889BB2591E89B288
:10B5E40091800BB3A3681BB302232370A368216962
:10B5F4002846984700F030F905462378DBB2022B41
:10B604001AD0154B1B6833B3134B1B685B685B1B69
:10B61400642B20D5104B1C682378DBB2012BD6D0C9
:10B624007846FCF77DF8D2E77846FCF779F8D9E755
:10B634007846FCF775F8D7E7E26812B9002323705F
:10B64400DFE76368134463605B1B642BF9D4204613
:10B65400FFF78EFFD5E738BD4056002008B5124BE2
:10B664001B6873B1104B1B685B68C31A13F1640F3A
:10B6740008D402230D4A00F16401012000F0B0F85F
:10B6840070B908BD084B19680223084A49680120AB
:10B6940000F0A6F80028F4D07846FCF741F8F0E76B
:10B6A4007846FCF73DF8ECE740560020CDB60200A2
:10B6B40008B500F0D1F8FFF787FF00F0CDF8FFF7E9
:10B6C400CDFF012008BD000008B5024B186800F04A
:10B6D40073FD08BD3C56002008B5054B00221A60D6
:10B6E4005A60044800F048FD034B186008BD00BFD1
:10B6F40040560020B5B602003C56002010B5044662
:10B7040000F02EFE80B19CB1A368ABB12378DBB20C
:10B71400012B15D0002363612046FFF729FF00F0B9
:10B724009BF8FFF79BFF10BD7846FBF7F9FFEAE7AC
:10B734007846FBF7F5FFE7E77846FBF7F1FFE5E727
:10B744007846FBF7EDFFE5E710B5044600F008FE88
:10B7540050B16CB12046FFF7F3FE0023636100F0A3
:10B764007BF8FFF77BFF10BD7846FBF7D9FFF0E7C6
:10B774007846FBF7D5FFEDE738B504460D4600F0F3
:10B78400EFFD70B18CB12046FFF7DAFE0023636150
:10B7940065602046FFF7ECFE00F05EF8FFF75EFF01
:10B7A40038BD7846FBF7BCFFECE77846FBF7B8FFFB
:10B7B400E9E7000010B4094B00F15002002443F8FB
:10B7C400224000F110040122A240C3F8042300F532
:10B7D400A87043F820105DF8044B704700800040C7
:10B7E400022825D838B533F0030423D1EFF31085AC
:10B7F400124C256072B6124C44F82020114A42F8CB
:10B804002010114A1354114B002243F82020104BEE
:10B814001B7833B10F4B1B68CA1A07D41146FFF7C4
:10B82400C9FF064B186838B962B604E05A1AF5E73E
:10B83400072070470A2038BD0020FCE76C56002022
:10B844004C560020605600204856002074560020B4
:10B85400585600205C560020EFF310820C4B1A60FF
:10B8640072B60C4B1B787BB10B4B0022C3F84C21F6
:10B874000122DA64D3F84C05084B1B681844044BC6
:10B884001B6803B962B67047054B1868F7E700BF39
:10B894006C56002058560020008000405C56002062
:10B8A4007056002070B5002418E01F4B002243F8A6
:10B8B4002420012303FA05F51C4BC3F80853FFF7B2
:10B8C400CBFF1B4B1B5D13F0020F21D0B04704F1DB
:10B8D4005003164A002142F823100134022C21D8C7
:10B8E40004F15003114A52F82330002BF5D0D2F85A
:10B8F400043304F11005EB4013F0010FEDD00A4BB3
:10B9040053F82460002ED0D17846FBF709FFCCE72A
:10B914000146304600F0DAFB0028D8D07846FBF721
:10B92400FFFED4E770BD00BF4C56002000800040ED
:10B934004856002070B50546002414E0981A27E004
:10B944005E1A29E02946184600F0C0FB002836D1CB
:10B954002A4B53F824302BB101221A60274B0022C2
:10B9640043F824200134022C3AD8254B04F5A8725C
:10B97400002143F8221004F1500243F8221053F836
:10B984002230204B53F824201F4B1B68D01AD5D4E7
:10B9940005F17801CE1AD3D4864214D91B4B53F83F
:10B9A4002430002BD4D0194A002142F82410184A1C
:10B9B400125D12F0020FC5D028469847C8E77846B2
:10B9C400FBF7AEFEC4E7114B53F82430002BC9D06B
:10B9D400E0B2511B02D4FFF7EDFEC3E7A91AFAE760
:10B9E4000C4B1B681BB90C4B4FF480721A60064B4E
:10B9F4001D600A4B01221A7070BD00BF74560020EE
:10BA040000800040605600205C5600204C56002008
:10BA1400485600206C56002000E100E058560020F3
:10BA2400002300E00133022B0ED80F4AD25C12F03F
:10BA3400010FF7D000220C49CA540C4941F82320C5
:10BA44000B4941F82320EDE70A4B18600A4B00220A
:10BA54001A700A4B4FF0FF32C3F80823084B4FF417
:10BA64008072C3F880217047485600204C5600204D
:10BA74007456002070560020585600200080004064
:10BA840000E100E030DF704731DF704710B4026836
:10BA94004368A2EB7312846883EAF4330360C168D9
:10BAA4000C444460114481601344C36018465DF83B
:10BAB400044B704770B582B00D46064608B10024A9
:10BAC4000BE07846FBF72CFEF9E79DF807103019D8
